:020000040000FA
:0400000032EF00F0EB
:100008004B82D9CF3CF0DACF3DF00E01C5AB0FEFF4
:1000180000F011EF00F021EF00F0FE0ED36E0C0E91
:10002800D26EC59B4004D8A41CEF00F01FEF00F06F
:10003800010E20EF00F0000E406EC8AB26EF00F076
:1000480028EF00F02CEF00F0C7EC1AF049EC15F09F
:100058003DC0DAFF3CC0D9FF4B921100B6EF1AF051
:100F000000010000000A00000064000000E8030087
:100F10000010270000A086010040420F00000001E1
:100F2000A351800BAC6FA351A325AE6FA2AF9BEF73
:100F300007F09DEF07F09EEF07F0AE81AE51D8B4F9
:100F4000A4EF07F0A6EF07F0BBEF07F0AE29D8A497
:100F5000ACEF07F0AEEF07F0B6EF07F0000EA06FB2
:100F6000000EA16F000EA26F000EA36FA28F000EE5
:100F7000A36FC3EF07F0000EA06F000EA16F000E6D
:100F8000A26F000EA36FA751800BAD6FAC51AD19CE
:100F9000D8B4CDEF07F0CFEF07F0D0EF07F0AC8D6E
:100FA000A751A725AD6FA6AFD8EF07F0DAEF07F08E
:100FB000DBEF07F0AD81AD51D8B4E1EF07F0E3EF1F
:100FC00007F0F8EF07F0AD29D8A4E9EF07F0EBEF51
:100FD00007F0F3EF07F0000EA46F000EA56F000EF0
:100FE000A66F000EA76FA68F000EA76F00EF08F088
:100FF000000EA46F000EA56F000EA66F000EA76F67
:10100000AE51AD5DD8B007EF08F009EF08F030EF52
:1010100008F0ACAD0EEF08F010EF08F012EF08F09A
:10102000800EAC1BAEC0AFF0ADC0AEF0AFC0ADF047
:10103000A0C0AFF0A4C0A0F0AFC0A4F0A1C0AFF0BA
:10104000A5C0A1F0AFC0A5F0A2C0AFF0A6C0A2F0AD
:10105000AFC0A6F0A3C0AFF0A7C0A3F0AFC0A7F089
:10106000000EAF6FAE51ADC0A8F0A96BA85F000E27
:10107000A95BA9BF45EF08F0A95109E11A0EA85DC7
:10108000D8A045EF08F047EF08F07EEF08F0A05138
:10109000A111A211A311D8A450EF08F053EF08F04A
:1010A000010E54EF08F0000EAF6F000EA06F000E9F
:1010B000A16F000EA26F000EA36FADC0AEF087EF60
:1010C00008F0AFA166EF08F068EF08F06EEF08F0E7
:1010D000D890AF310109AF6F70EF08F0D890AF33FF
:1010E000A0A175EF08F077EF08F078EF08F0AF8F68
:1010F000A335A333A233A133A033AE2BAD51AE5DE4
:10110000D8A085EF08F087EF08F061EF08F0ACBDDC
:101110008CEF08F08EEF08F0CEEF08F0AE51D8A4B7
:1011200094EF08F096EF08F0A0EF08F0000EA06F23
:10113000000EA16F000EA26F000EA36FEFEF09F07B
:10114000A451A027A551A123A651A223A751A323AF
:10115000A3A1ADEF08F0AFEF08F05BEF09F0AFA18E
:10116000B4EF08F0B6EF08F0BCEF08F0D890AF315C
:101170000109AF6FBEEF08F0D890AF33A0A1C3EF65
:1011800008F0C5EF08F0C6EF08F0AF8FA335A33322
:10119000A233A133A033AE2B5BEF09F0A451A05DC5
:1011A000A551A159A651A259A351800AA86FA751D0
:1011B000800AA859D8B0DFEF08F0E1EF08F00CEF93
:1011C00009F0A051A45DA86FA151A559A96FA25122
:1011D000A659AA6FA351A759AB6FFF0EA825A06F00
:1011E000FF0EA921A16FFF0EAA21A26FFF0EAB2156
:1011F000A36F800EAC1BAF6DAF51D8A402EF09F006
:1012000004EF09F014EF09F0010EA027000EA1234E
:10121000A223A32314EF09F0A451A05FA551A15B61
:10122000A651A25BA751A35BA051A111A211A311CA
:10123000D8A41DEF09F01FEF09F054EF09F0AF51EA
:10124000D8A425EF09F027EF09F054EF09F0000EBC
:10125000A06F000EA16F000EA26F000EA36FEFEF44
:1012600009F0D890A037A137A237A337AFAF3BEF33
:1012700009F03DEF09F03EEF09F0A081AFA143EF87
:1012800009F045EF09F049EF09F0D880AF374BEF8F
:1012900009F0D890AF37AE51D8B451EF09F053EF01
:1012A00009F054EF09F0AE07A2AF59EF09F05BEF78
:1012B00009F031EF09F0000EAD6FAFAF62EF09F04A
:1012C00064EF09F07CEF09F0AFC0A8F07F0EA8171B
:1012D000D8B46DEF09F06FEF09F073EF09F0010E6C
:1012E000AD6F7CEF09F0A0A178EF09F07AEF09F07B
:1012F0007CEF09F06FEF09F0AD51D8B482EF09F03F
:1013000084EF09F0AFEF09F0010EA027000EA12332
:10131000A223A323A3A18FEF09F091EF09F0AFEF70
:1013200009F0A0C0A8F0A1C0A9F0A2C0AAF0A3C073
:10133000ABF0AB35AB33AA33A933A833A8C0A0F0C8
:10134000A9C0A1F0AAC0A2F0ABC0A3F0AE29D8B446
:10135000ACEF09F0AEEF09F0AFEF09F0AE2BAE291C
:10136000D8B4B5EF09F0B7EF09F0BFEF09F0AE510F
:10137000D8A4BDEF09F0BFEF09F0D1EF09F0000EDE
:10138000A06F000EA16F000EA26F000EA36FAE51F2
:10139000D8A4CDEF09F0CFEF09F0D1EF09F0000E9E
:1013A000AC6FAEA1D6EF09F0D8EF09F0DBEF09F092
:1013B000A28FDCEF09F0A29FD890AE31A36FACAF43
:1013C000E4EF09F0E6EF09F0E7EF09F0A38FA0C022
:1013D000A0F0A1C0A1F0A2C0A2F0A3C0A3F012008F
:1013E00000017151800B7A6F71517125806F70AF60
:1013F000FCEF09F0FEEF09F0FFEF09F0808180516A
:10140000D8B405EF0AF007EF0AF01AEF0AF08029C6
:10141000D8A40DEF0AF00FEF0AF017EF0AF0000E54
:101420006E6F000E6F6F000E706F000E716F708F19
:1014300022EF0AF0000E6E6F000E6F6F000E706FDD
:10144000000E716F7551800B7A1B755175257F6F7A
:1014500074AF2DEF0AF02FEF0AF030EF0AF07F8122
:101460007F51D8B436EF0AF038EF0AF04BEF0AF0AC
:101470007F29D8A43EEF0AF040EF0AF048EF0AF0C7
:10148000000E726F000E736F000E746F000E756F9A
:10149000748F53EF0AF0000E726F000E736F000E20
:1014A000746F000E756F7F51D8B459EF0AF05BEF7F
:1014B0000AF063EF0AF08051D8A461EF0AF063EFFD
:1014C0000AF06DEF0AF0000E6E6F000E6F6F000EE7
:1014D000706F000E716F05EF0CF074516E03F3CF57
:1014E00085F0F4CF86F085517B6F7C6B7D6B7E6BD6
:1014F0008651816F826B836B846B73516F03F3CF63
:1015000085F0F4CF86F085517B27000E7C237D2368
:101510007E2386518127000E8223832384237251E8
:101520007003F3CF85F0F4CF86F085517B27000E52
:101530007C237D237E2386518127000E82238323F3
:1015400084237DC07EF07CC07DF07BC07CF07B6B13
:1015500072516F03F3CF85F0F4CF86F085517B276E
:1015600086517C23000E7D23000E7E2373516E0373
:10157000F3CF85F0F4CF86F085517B2786517C230D
:10158000000E7D23000E7E237DC07EF07CC07DF0AA
:101590007BC07CF07B6B72516E03F3CF85F0F4CF90
:1015A00086F085517B2786517C23000E7D23000E1B
:1015B0007E2374516F03F3CF85F0F4CF86F085510D
:1015C000812786518223000E8323000E84237351CA
:1015D0007003F3CF85F0F4CF86F0855181278651D3
:1015E0008223000E8323000E842374517003F3CFF3
:1015F00085F0F4CF86F08551766F8651776F786BE2
:10160000796B78C079F077C078F076C077F0766B38
:10161000765181277751822378518323795184230E
:101620007BC076F07CC077F07DC078F07EC079F02A
:10163000190E20EF0BF0D890793378337733763367
:10164000E82E1BEF0BF076518127775182237851DA
:101650008323795184237DC07EF07CC07DF07BC0E4
:101660007CF07B6B7F5180C076F0776B7627000E25
:101670007723820E7625856FFF0E7721866F56EFD2
:101680000BF0D89081378237833784377EAF4BEFAA
:101690000BF04DEF0BF04EEF0BF08181D8907B37C4
:1016A0007C377D377E378507D8A0860783AF5BEF11
:1016B0000BF05DEF0BF041EF0BF0000E7F6F7EAF94
:1016C00064EF0BF066EF0BF08AEF0BF0FF0E7B156B
:1016D000766FFF0E7C15776FFF0E7D15786F7F0E8E
:1016E0007E15796F7651771178117911D8B47BEF27
:1016F0000BF07DEF0BF081EF0BF0010E7F6F8AEFA7
:101700000BF081A186EF0BF088EF0BF08AEF0BF066
:101710007DEF0BF07F51D8B490EF0BF092EF0BF010
:10172000B6EF0BF0010E8127000E82238323842362
:1017300084A19DEF0BF09FEF0BF0B6EF0BF081C093
:1017400076F082C077F083C078F084C079F0793584
:10175000793378337733763376C081F077C082F08F
:1017600078C083F079C084F0854B862B86BFC1EFAB
:101770000BF0865108E18529D8A0C1EF0BF0C3EF2B
:101780000BF0CDEF0BF0000E816F000E826F800E1C
:10179000836F7F0E846FFBEF0BF086BFDAEF0BF0E9
:1017A000865106E18505D8B0D8EF0BF0DAEF0BF0E3
:1017B000E6EF0BF0000E816F000E826F000E836F5C
:1017C000000E846F000E7A6FFBEF0BF085C080F087
:1017D000FF0E8117FF0E82177F0E8317000E8417EE
:1017E00080A1F5EF0BF0F7EF0BF0F8EF0BF0838F24
:1017F000D8908031846F7A51841381C06EF082C09A
:101800006FF083C070F084C071F0120000018A5143
:10181000800B976F8A518A259E6F89AF12EF0CF06B
:1018200014EF0CF015EF0CF09E819E51D8B41BEF15
:101830000CF01DEF0CF032EF0CF09E29D8A423EF32
:101840000CF025EF0CF02DEF0CF0000E876F000E62
:10185000886F000E896F000E8A6F898F000E8A6F65
:101860003AEF0CF0000E876F000E886F000E896F44
:10187000000E8A6F8E51800B971B8E518E259F6FA5
:101880008DAF45EF0CF047EF0CF048EF0CF09F8167
:101890009F51D8B44EEF0CF050EF0CF065EF0CF008
:1018A0009F29D8A456EF0CF058EF0CF060EF0CF025
:1018B000000E8B6F000E8C6F000E8D6F000E8E6F02
:1018C0008D8F000E8E6F6DEF0CF0000E8B6F000E83
:1018D0008C6F000E8D6F000E8E6F8B518C118D11E1
:1018E0008E11D8A476EF0CF078EF0CF090EF0CF09E
:1018F000000E876F000E886F000E896F000E8A6FD2
:10190000800E89137F0E8A1397518A1387C087F040
:1019100088C088F089C089F08AC08AF0D3EF0DF0C2
:101920009E51D8A496EF0CF098EF0CF0A2EF0CF0BB
:10193000000E876F000E886F000E896F000E8A6F91
:10194000D3EF0DF09F519EC08FF0906B8F5F000E14
:10195000905B7F0E8F25986F000E9021996F87C046
:1019600093F088C094F089C095F08AC096F0000E7C
:10197000876F000E886F000E896F000E8A6F000E51
:101980009A6F000E9B6F000E9C6F000E9D6F000EF5
:101990009F6F03EF0DF09F51D8B4D1EF0CF0D3EF50
:1019A0000CF0EAEF0CF0D8909337943795379637D0
:1019B000D8908737883789378A379DAFE2EF0CF0A8
:1019C000E4EF0CF0E5EF0CF08781D8909A379B3765
:1019D0009C379D378B51935D8C5194598D519559FE
:1019E0008E519659D8A0F7EF0CF0F9EF0CF002EFFA
:1019F0000DF09D8D8B51935F8C51945B8D51955B58
:101A00008E51965B9F2B190E9F6509EF0DF00BEF22
:101A10000DF0CBEF0CF09351941195119611D8B4B1
:101A200014EF0DF016EF0DF02EEF0DF09A812EEF62
:101A30000DF0D8908737883789378A379DAF23EFE5
:101A40000DF025EF0DF026EF0DF08781D8909A3735
:101A50009B379C379D379807D8A0990789AF33EFFC
:101A60000DF035EF0DF019EF0DF0000E9F6F9DAFEB
:101A70003CEF0DF03EEF0DF062EF0DF0FF0E9A150A
:101A80008F6FFF0E9B15906FFF0E9C15916F7F0E51
:101A90009D15926F8F51901191119211D8B453EFFF
:101AA0000DF055EF0DF059EF0DF0010E9F6F62EF45
:101AB0000DF087A15EEF0DF060EF0DF062EF0DF01D
:101AC00055EF0DF09F51D8B468EF0DF06AEF0DF0AF
:101AD0008EEF0DF0010E8727000E882389238A23BD
:101AE0008AA175EF0DF077EF0DF08EEF0DF087C046
:101AF0008FF088C090F089C091F08AC092F0923542
:101B00009233913390338F338FC087F090C088F039
:101B100091C089F092C08AF0984B992B99BF99EFA8
:101B20000DF0995108E19829D8A099EF0DF09BEF9D
:101B30000DF0A6EF0DF0000E996F9869000E876FFB
:101B4000000E886F000E896F000E8A6F99BFB3EF89
:101B50000DF0995106E19805D8B0B1EF0DF0B3EF53
:101B60000DF0C1EF0DF0000E996F000E986F000E92
:101B7000876F000E886F000E896F000E8A6F000E4F
:101B8000976F98C09EF09EA1C8EF0DF0CAEF0DF0C0
:101B9000CDEF0DF0898FCEEF0DF0899FD8909E315B
:101BA0008A6F84EF0CF01200000E0001956F000E9A
:101BB000966F000E976F8A510DE1400E875D420EC1
:101BC00088590F0E8959D8A0E8EF0DF0EAEF0DF013
:101BD00004EF0EF087C06DF088C06EF089C06FF022
:101BE0008AC070F0400E716F420E726F0F0E736FED
:101BF000000E746F88EC18F06DC087F06EC088F02E
:101C00006FC089F070C08AF087C06DF088C06EF038
:101C100089C06FF08AC070F00A0E0001716F000E6B
:101C2000726F000E736F000E746F88EC18F0000175
:101C30006D51946F0A0E646F000E656F000E666F33
:101C4000000E676F87C060F088C061F089C062F0E5
:101C50008AC063F0E3EC17F060C06DF061C06EF015
:101C600062C06FF063C070F00A0E0001716F000E69
:101C7000726F000E736F000E746F88EC18F0000125
:101C80006D51936F640E646F000E656F000E666F8A
:101C9000000E676F87C060F088C061F089C062F095
:101CA0008AC063F0E3EC17F060C06DF061C06EF0C5
:101CB00062C06FF063C070F00A0E0001716F000E19
:101CC000726F000E736F000E746F88EC18F00001D5
:101CD0006D51926FE80E646F030E656F000E666FB4
:101CE000000E676F87C060F088C061F089C062F045
:101CF0008AC063F0E3EC17F060C06DF061C06EF075
:101D000062C06FF063C070F00A0E0001716F000EC8
:101D1000726F000E736F000E746F88EC18F0000184
:101D20006D51916F100E646F270E656F000E666F18
:101D3000000E676F87C060F088C061F089C062F0F4
:101D40008AC063F0E3EC17F060C06DF061C06EF024
:101D500062C06FF063C070F00A0E0001716F000E78
:101D6000726F000E736F000E746F88EC18F0000134
:101D70006D51906FA00E646F860E656F010E666FD9
:101D8000000E676F87C060F088C061F089C062F0A4
:101D90008AC063F0E3EC17F060C06DF061C06EF0D4
:101DA00062C06FF063C070F00A0E0001716F000E28
:101DB000726F000E736F000E746F88EC18F00001E4
:101DC0006D518F6F94518B6F8C6B8D6B8B51951305
:101DD0008C5196138D519713040E8B6F93518C6F0A
:101DE0008D6B8E6B8B29F9EF0EF0D8908C378D3779
:101DF0008E37E82EF5EF0EF000018C5195138D51C2
:101E000096138E51971392518B6F8C6B8D6B8CC088
:101E10008DF08BC08CF08B6B8B5195138C5196137E
:101E20008D5197130C0E8B6F91518C6F8D6B8E6B48
:101E30008B291FEF0FF0D8908C378D378E37E82E17
:101E40001BEF0FF000018C5195138D5196138E519D
:101E5000971390519713140E8B6F8F518C6F8D6B5E
:101E60008E6B8B2938EF0FF0D8908C378D378E37EB
:101E7000E82E34EF0FF000018C5195138D5196131D
:101E80008E51971395C060F096C061F097C062F0D4
:101E900084EC19F01200100E056E270E066E000E6F
:101EA000076E000E086E21C001F022C002F023C0B0
:101EB00003F024C004F036EC18F001C00EF002C0AC
:101EC0000FF003C010F004C011F0640E126E000E8B
:101ED000136E000E146E000E156ECDEC18F00EC0D1
:101EE00031F00FC032F010C033F011C034F0640E86
:101EF000056E000E066E000E076E000E086E21C005
:101F000001F022C002F023C003F024C004F036EC3C
:101F100018F001C00EF002C00FF003C010F004C0B2
:101F200011F0640E126E000E136E000E146E000E91
:101F3000156ECDEC18F00EC035F00FC036F010C0A5
:101F400037F011C038F021C00EF022C00FF023C0CE
:101F500010F024C011F0640E126E000E136E000E0D
:101F6000146E000E156ECDEC18F00EC02DF00FC0E3
:101F70002EF010C02FF011C030F0090E31240E6E7B
:101F8000000E32200F6E000E3320106E000E342033
:101F9000116E180E126E000E136E000E146E000EEF
:101FA000156ECDEC18F00EC031F00FC032F010C03D
:101FB00033F011C034F0010E35240E6E000E3620C1
:101FC0000F6E000E3720106E000E3820116E0F0EAF
:101FD000126E000E136E000E146E000E156ECDEC18
:101FE00018F00E500F1010101110D8A4FAEF0FF0C7
:101FF000FCEF0FF060EF10F030502F102E1009E1C1
:10200000370E2D5CD8A007EF10F009EF10F060EF4D
:1020100010F0010E0001CC6F3B0E35183610371052
:102020003810D8A416EF10F018EF10F038EF10F0B9
:10203000010E3126000E32223322342231C00EF03E
:1020400032C00FF033C010F034C011F0180E126E11
:10205000000E136E000E146E000E156ECDEC18F00F
:102060000EC031F00FC032F010C033F011C034F0A8
:10207000010E3526000E36223722382235C00EF0EA
:1020800036C00FF037C010F038C011F03C0E126EA1
:10209000000E136E000E146E000E156ECDEC18F0CF
:1020A0000EC035F00FC036F010C037F011C038F058
:1020B000000E2D6E000E2E6E000E2F6E000E306E76
:1020C00031C001F032C002F033C003F034C004F07C
:1020D000100E056E270E066E000E076E000E086EBF
:1020E000F0EC19F001C025F002C026F003C027F083
:1020F00004C028F035C001F036C002F037C003F04C
:1021000038C004F0640E056E000E066E000E076EF9
:10211000000E086EF0EC19F001502524296E0250D3
:1021200026202A6E035027202B6E045028202C6E68
:102130002D502924216E2E502A20226E2F502B2024
:10214000236E30502C20246E1200000E0001BD6F53
:10215000E2EC16F0000E0001616F020E606F74EC8D
:102160001AF00009D8B4B7EF10F0B9EF10F0BBEFD8
:1021700010F08EEC17F084AAC0EF10F0C2EF10F050
:10218000EFEF11F0000E0001616F320E606F4EEC48
:102190001AF00009D8B4CFEF10F0D1EF10F0AAEF89
:1021A00010F00001CC51D8B4D8EF10F0DAEF10F0F5
:1021B000E3EF11F0BD2BBD51606F616B626B636B20
:1021C000010EEAEC12F060C06EF061C06FF062C008
:1021D00070F063C071F0000E0001726F000E736F3B
:1021E0008C0E746F420E756F5FEC16F00001D8B064
:1021F000FCEF10F0FEEF10F002EF11F0060EBC6FD6
:10220000CBEF11F0BD51606F616B626B636B010EC0
:10221000EAEC12F060C06EF061C06FF062C070F066
:1022200063C071F0000E0001726F000E736F980EA4
:10223000746F420E756F5FEC16F00001D8B023EF9B
:1022400011F025EF11F029EF11F0050EBC6FCBEF67
:1022500011F0BD51606F616B626B636B010EEAEC54
:1022600012F060C06EF061C06FF062C070F063C0C9
:1022700071F0000E0001726F000E736FA40E746F88
:10228000420E756F5FEC16F00001D8B04AEF11F006
:102290004CEF11F050EF11F0040EBC6FCBEF11F0CA
:1022A000BD51606F616B626B636B010EEAEC12F003
:1022B00060C06EF061C06FF062C070F063C071F01A
:1022C000000E0001726F000E736FB00E746F420E3D
:1022D000756F5FEC16F00001D8B071EF11F073EF7D
:1022E00011F077EF11F0030EBC6FCBEF11F0BD5181
:1022F000606F616B626B636B010EEAEC12F060C0A1
:102300006EF061C06FF062C070F063C071F0000EDB
:102310000001726F000E736FBC0E746F420E756F0A
:102320005FEC16F00001D8B098EF11F09AEF11F0C1
:102330009EEF11F0020EBC6FCBEF11F0BD51606F3C
:10234000616B626B636B010EEAEC12F060C06EF0C1
:1023500061C06FF062C070F063C071F0000E0001E8
:10236000726F000E736FC80E746F420E756F5FEC64
:1023700016F00001D8B0BFEF11F0C1EF11F0C5EFBA
:1023800011F0010EBC6FCBEF11F0000EBC6F000E10
:10239000CC6F000EBD6FBEC076F0BFC077F0C0C07E
:1023A00078F0C1C079F0BCC07AF0C6EC13F076C00A
:1023B00087F077C088F078C089F079C08AF0D4ECD3
:1023C0000DF0AAEF10F0BEC087F0BFC088F0C0C00B
:1023D00089F0C1C08AF0D4EC0DF0AAEF10F0000132
:1023E000CC51D8B4F6EF11F0F8EF11F0AAEF10F0DD
:1023F000000ECC6FAAEF10F032EF00F0000E1D6E51
:10240000000E1E6E000E1F6E000E206E000E176E68
:10241000000E166E0EEF12F00D4A0E2A010E1C6E03
:102420000DC0D9FF0EC0DAFF200EDE18D8B41BEFA6
:1024300012F01DEF12F039EF12F0F70E116EFF0ED1
:10244000126E0DC0D9FF0EC0DAFFDF50136E146A92
:102450001150132612501422145009E1050E135C7A
:10246000D8A035EF12F037EF12F039EF12F0000E6E
:102470001C6E1CC018F0196A18501910D8A443EF2C
:1024800012F045EF12F00CEF12F04FEF12F0000EC9
:10249000176E010E166E0D4A0E2A96EF12F00DC041
:1024A000D9FF0EC0DAFFDF50116E126A1250000A17
:1024B000D8B45DEF12F096EF12F011502B0AD8B499
:1024C0004BEF12F0060AD8B447EF12F096EF12F075
:1024D0000DC0D9FF0EC0DAFFDF50116ED00E1124EF
:1024E000126E136AFF0E1322146A156A1DC001F0E2
:1024F0001EC002F01FC003F020C004F00A0E056EDB
:10250000000E066E000E076E000E086EF0EC19F05D
:102510001250015C1D6E135002581E6E1450035869
:102520001F6E15500458206E4BEF12F0D00E116E36
:10253000FF0E126E0DC0D9FF0EC0DAFFDF50136E12
:10254000146A115013261250142214500AE10A0E74
:10255000135CD8A0AEEF12F0B1EF12F0010EB2EFA3
:1025600012F0000E1A6E1B6A1A501B10D8A4BBEF93
:1025700012F0BDEF12F068EF12F016501710D8A449
:10258000C4EF12F0C6EF12F0E1EF12F01DC011F02F
:102590001EC012F01FC013F020C014F0111E121E36
:1025A000131E141E112A000E12221322142211C00F
:1025B0000DF012C00EF013C00FF014C010F0E9EFD0
:1025C00012F01DC00DF01EC00EF01FC00FF020C095
:1025D00010F012000001686F00016851D8B4F3EFE9
:1025E00012F0F5EF12F017EF13F063BFFCEF12F0EB
:1025F000FAEF12F017EF13F060C064F061C065F0FD
:1026000062C066F063C067F0641F651F661F671FC6
:10261000642B000E65236623672364C06AF065C0DF
:102620006BF066C06CF067C06DF01FEF13F060C018
:102630006AF061C06BF062C06CF063C06DF0605115
:10264000611162116311D8A428EF13F02AEF13F07F
:1026500034EF13F0000E606F000E616F000E626FBA
:10266000000E636FC5EF13F0960E696F3EEF13F027
:10267000692BD8906D336C336B336A33000E6A1557
:10268000646F000E6B15656F000E6C15666FFE0EA5
:102690006D15676F6451651166116711D8A453EF0A
:1026A00013F055EF13F038EF13F063EF13F0692BCD
:1026B000010E6A27000E6B236C236D23D8906D33B7
:1026C0006C336B336A33000E6A15646F000E6B1542
:1026D000656F000E6C15666FFF0E6D15676F6451A8
:1026E000651166116711D8A478EF13F07AEF13F033
:1026F00057EF13F082EF13F06907D8906A376B3702
:102700006C376D376CBF87EF13F089EF13F091EFE3
:1027100013F0020E69618FEF13F091EF13F07CEF6D
:1027200013F069B196EF13F098EF13F099EF13F0EF
:102730006C9FD890693369C064F0656B666B676B9A
:1027400064C067F0666B656B646B64516A136551B6
:102750006B1366516C1367516D136851D8B4B3EFA6
:1027600013F0B5EF13F0BDEF13F063BFBCEF13F040
:10277000BAEF13F0BDEF13F06D8F6AC060F06BC05D
:1027800061F06CC062F06DC063F01200050E0001D4
:102790007A65CDEF13F0CFEF13F0D1EF13F0060E03
:1027A0007A6F76C060F077C061F078C062F079C06F
:1027B00063F07A51040D010EF324F66E0F0EF4202F
:1027C000F76EF86A000EF8220900F5CF64F00900F0
:1027D000F5CF65F00900F5CF66F00A00F5CF67F098
:1027E000E3EC17F060C076F061C077F062C078F07B
:1027F00063C079F04CEC19F000016CC07FF06DC043
:1028000080F0000E80BFFF0E816F826F4CEC19F0DC
:1028100000016CC07BF06DC07CF0000E7CBFFF0E31
:102820007D6F7E6F7FC060F080C061F081C062F01C
:1028300082C063F0E80E646F030E656F000E666F72
:10284000000E676FBAEC19F000017B516025836FB1
:102850007C516121846F7D516221856F7E5163219E
:10286000866F83C06DF084C06EF085C06FF086C047
:1028700070F07A51040D010EF324F66E0F0EF42061
:10288000F76EF86A000EF8220900F5CF71F0090022
:10289000F5CF72F00900F5CF73F00A00F5CF74F0B0
:1028A00088EC18F06DC083F06EC084F06FC085F0C6
:1028B00070C086F000017A51040D010EF324F66E0B
:1028C0000F0EF420F76EF86A000EF8220900F5CF1B
:1028D00060F00900F5CF61F00900F5CF62F00A0061
:1028E000F5CF63F076C064F077C065F078C066F02D
:1028F00079C067F0BAEC19F000016051832761518B
:102900008423625185236351862383C076F084C07B
:1029100077F085C078F086C079F0120001C00BF026
:1029200002C00CF005500610D8A499EF14F09BEFEC
:1029300014F09DEF14F048EF15F00BC0D9FF0CC058
:10294000DAFF03C0DFFF05500B24076E06500C2092
:10295000086EFF0E0724D96EFF0E0820DA6E03C042
:10296000DFFF065007E1030E055CD8B0BAEF14F0A4
:10297000BCEF14F0BEEF14F048EF15F020EE01F0BC
:102980000B50D9260C50DA2203C0DFFF20EE02F0F4
:102990000B50D9260C50DA2203C0DFFF05500B2460
:1029A000076E06500C20086EFE0E0724D96EFF0E2F
:1029B0000820DA6E03C0DFFF05500B24076E0650B7
:1029C0000C20086EFD0E0724D96EFF0E0820DA6E6B
:1029D00003C0DFFF065007E1070E055CD8B0F3EF38
:1029E00014F0F5EF14F0F7EF14F048EF15F020EEC7
:1029F00003F00B50D9260C50DA2203C0DFFF05503C
:102A00000B24076E06500C20086EFC0E0724D96EAE
:102A1000FF0E0820DA6E03C0DFFF065007E1090E43
:102A2000055CD8B016EF15F018EF15F01AEF15F099
:102A300048EF15F00BC007F00CC008F0071E081E89
:102A4000074A082A030E0714096E0A6A09500B2662
:102A50000A500C220950055E0A50065AFC0E051653
:102A6000FF0E06163FEF15F00BC0D9FF0CC0DAFFC2
:102A700003C0DFFF0506D8A006060B4A0C2A055046
:102A80000610D8A446EF15F048EF15F034EF15F016
:102A900012003B6E82EF15F0240E3B18D8A453EFC2
:102AA00015F055EF15F0B0EF15F0410E016E000E68
:102AB000026E000E046E000E036E000E066E0A0E0D
:102AC000056E8EEC14F03E4A3F2AB0EF15F05A0E18
:102AD0003B18D8A46EEF15F070EF15F072EF15F0FB
:102AE00063EF15F0000E3F6E000E3E6EB0EF15F076
:102AF0003A0E3E24D96E000E3F20DA6E3BC0DFFF57
:102B000063EF15F03EC039F03FC03AF03A50000A8A
:102B1000D8B48DEF15F063EF15F03950000AD8B432
:102B20004CEF15F0030AD8B467EF15F0040AD8B4D7
:102B300078EF15F00F0AD8B478EF15F0010AD8B481
:102B400078EF15F0030AD8B478EF15F0010AD8B47D
:102B500078EF15F0070AD8B478EF15F063EF15F0A9
:102B60003FBEBCEF15F03F5009E10D0E3E5CD8A012
:102B7000BCEF15F0BEEF15F0DAEF15F0410E0D6E5B
:102B8000000E0E6EFEEC11F00DC021F00EC022F012
:102B90000FC023F010C024F04BEC0FF021C0BEF0AA
:102BA00022C0BFF023C0C0F024C0C1F0000E3F6EB1
:102BB000000E3E6E12000001B235B335B96FB95147
:102BC000D8A4E5EF15F0E7EF15F0F1EF15F0000EE2
:102BD000B06F000EB16F000EB26F000EB36F5EEFFC
:102BE00016F0B0C0B4F0B1C0B5F0B2C0B6F0B3C02A
:102BF000B7F0200E01EF16F0D890B733B633B533E7
:102C0000B433E82EFCEF15F0B451B86FB28FFF0E5D
:102C1000B017FF0EB117FF0EB217000EB317960EC6
:102C2000B95FB9BF18EF16F016EF16F02EEF16F0D9
:102C3000B951800A970FD8B020EF16F022EF16F0A6
:102C400024EF16F0E7EF15F0D890B333B233B13379
:102C5000B033B93F24EF16F046EF16F01F0EB965FA
:102C600034EF16F036EF16F03EEF16F0E7EF15F002
:102C7000D890B037B137B237B337B907B951D8A404
:102C800044EF16F046EF16F038EF16F0B851D8B40E
:102C90004CEF16F04EEF16F056EF16F0B31FB21FC2
:102CA000B11FB06D000EB123B223B323B0C0B0F09A
:102CB000B1C0B1F0B2C0B2F0B3C0B3F01200000EB8
:102CC00000016E15766F000E6F15776F800E701510
:102CD000786F7F0E7115796F7651771178117911B0
:102CE000D8A475EF16F077EF16F07FEF16F0000E10
:102CF0006E6F000E6F6F000E706F000E716F000E22
:102D00007215766F000E7315776F800E7415786FDD
:102D10007F0E7515796F7651771178117911D8A4D6
:102D200094EF16F096EF16F09EEF16F0000E726F0D
:102D3000000E736F000E746F000E756F71AFA3EF0E
:102D400016F0A5EF16F0AEEF16F06E6D6F1FD8B04F
:102D50006F2B701FD8B0702B800E715775AFB3EF0B
:102D600016F0B5EF16F0BEEF16F0726D731FD8B007
:102D7000732B741FD8B0742B800E7557000E6E1B0A
:102D8000000E6F1B000E701B800E711B000E721B5D
:102D9000000E731B000E741B800E751B72516E5D4E
:102DA00073516F597451705975517159D8B0DBEF27
:102DB00016F0DDEF16F0E0EF16F0D890E1EF16F028
:102DC000D8801200600E0E01D36F080ED96F000E6E
:102DD000876E000E886E410E896E000E0F010C6F1B
:102DE000000E146F000E1C6F900ED46ED00ED56EB8
:102DF0000E01BD8B010EBE6EFE0EBB6EF00EBC6EE4
:102E0000800EA46EAD50CF0B1009AD6E000E000108
:102E1000616F000E606F030E11EC19F0800EA16E51
:102E2000AD503F0B4009AD6E000E0001616F000E0A
:102E3000606F040E11EC19F0550E0E019B6FAA0E77
:102E40009B6F000E9B6F100EB06F070EF66F080E93
:102E5000F96F550E9B6FAA0E9B6F000E9B6FF28E43
:102E6000F28C250E0001BB6F800EBA6F39EC17F0A3
:102E70001200000E9D6E900E9C6E000E0001A46F5D
:102E8000000EA56F800EA66FBF0EA76F000E726FAB
:102E9000000E736F800E746F420E756FBAC060F0D3
:102EA000BBC061F0626B636B000EEAEC12F060C0B5
:102EB0006EF061C06FF062C070F063C071F0F0EC52
:102EC00009F06EC08BF06FC08CF070C08DF071C0D7
:102ED0008EF0000E0001876F240E886F740E896FCC
:102EE0004C0E8A6F06EC0CF087C0A0F088C0A1F0F1
:102EF00089C0A2F08AC0A3F08FEC07F0A0C0B0F0A8
:102F0000A1C0B1F0A2C0B2F0A3C0B3F0DBEC15F0E9
:102F10000001B0519A6E0E01C08B1200030E000129
:102F2000666F65698EAC97EF17F099EF17F0B2EF07
:102F300017F0848AC905D8B0A0EF17F0A2EF17F0F8
:102F4000A4EF17F0C84BC92BC629030EC759D8B038
:102F5000ACEF17F0AEEF17F0D4EF17F0C64BC72B5E
:102F6000D4EF17F0C651C711D8B4B9EF17F0BBEFC3
:102F700017F0C8EF17F0C607D8A0C707C651C7118A
:102F8000D8A4C5EF17F0C7EF17F0C8EF17F0849A71
:102F9000C851C911D8B4CFEF17F0D1EF17F0D4EF63
:102FA00017F0C807D8A0C907C8C060F0C9C061F051
:102FB000030E11EC19F0C6C060F0C7C061F0040E3A
:102FC00011EC19F01200000E0001686F000E696F1D
:102FD000000E6A6F000E6B6F645165116611671108
:102FE000D8B4F5EF17F0F7EF17F02DEF18F0010E4A
:102FF0006C6F01EF18F0D890643765376637673724
:103000006C2B67AF06EF18F008EF18F0FBEF17F026
:10301000D890683769376A376B376451605D65519E
:1030200061596651625967516359D8A01AEF18F077
:103030001CEF18F025EF18F06451605F6551615B7B
:103040006651625B6751635B6881D8906733663312
:10305000653364336C2F08EF18F068C060F069C006
:1030600061F06AC062F06BC063F01200000E096E7E
:10307000000E0A6E000E0B6E000E0C6E0550061050
:1030800007100810D8B447EF18F049EF18F07FEF99
:1030900018F0010E0D6E53EF18F0D8900536063675
:1030A000073608360D2A08AE58EF18F05AEF18F018
:1030B0004DEF18F0D89009360A360B360C3605500D
:1030C000015C065002580750035808500458D8A015
:1030D0006CEF18F06EEF18F077EF18F00550015E06
:1030E0000650025A0750035A0850045A0980D890D3
:1030F00008320732063205320D2E5AEF18F009C099
:1031000001F00AC002F00BC003F00CC004F0120082
:1031100000017151721173117411D8B492EF18F04B
:1031200094EF18F0C4EF18F0010E756F9EEF18F0D1
:10313000D8907137723773377437752B74AFA3EF2C
:1031400018F0A5EF18F098EF18F071516D5D7251FD
:103150006E5973516F5974517059D8A0B2EF18F06D
:10316000B4EF18F0BCEF18F071516D5F72516E5BE7
:1031700073516F5B7451705BD890743373337233D7
:103180007133752FA5EF18F06DC06DF06EC06EF045
:103190006FC06FF070C070F0120012501310141056
:1031A0001510D8B4D6EF18F0D8EF18F008EF19F0D2
:1031B000010E166EE2EF18F0D89012361336143660
:1031C0001536162A15AEE7EF18F0E9EF18F0DCEF28
:1031D00018F012500E5C13500F5814501058155020
:1031E0001158D8A0F6EF18F0F8EF18F000EF19F02A
:1031F00012500E5E13500F5A1450105A1550115A97
:10320000D8901532143213321232162EE9EF18F01C
:103210000EC00EF00FC00FF010C010F011C011F072
:1032200012000001646F35EF19F060C062F061C0F8
:1032300063F0633563336233633563336233625102
:10324000A36E60C0A2FF4BEF19F060C062F061C0D6
:1032500063F06335633362336335633362336251E2
:10326000A06E60C09FFF4BEF19F000016451626FC8
:10327000636B6351000AD8B440EF19F04BEF19F0BB
:103280006251030AD8B415EF19F0070AD8B425EF34
:1032900019F04BEF19F01200CDC060F0CEC061F014
:1032A000CFC062F0D0C063F02D0E0001646F7F0EBE
:1032B000656F950E666F4C0E676FBAEC19F0010ED4
:1032C00000016025CD6F000E6121CE6F000E6221DE
:1032D000CF6F000E6321D06FCDC06EF0CEC06FF007
:1032E000CFC070F0D0C071F0120E7CEF19F0D89002
:1032F000713370336F336E33E82E77EF19F06EC091
:103300006CF06FC06DF01200000E0001686F000ECF
:10331000676F60C063F061C064F062C065F06729E8
:10332000666F97EF19F0D890653364336333662F77
:1033300093EF19F0000163B1A0EF19F0A3EF19F0BA
:103340008486A4EF19F08496849484840001674BEA
:10335000682B68BFB5EF19F0685109E1180E675D79
:10336000D8A0B5EF19F0B7EF19F089EF19F08492F2
:1033700084821200000E0001686F000E696F000E5B
:103380006A6F000E6B6F60A1C8EF19F0CAEF19F0F9
:10339000D2EF19F0645168276551692366516A2399
:1033A00067516B23D8906437653766376737D89095
:1033B00063336233613360336051611162116311B1
:1033C000D8A4E5EF19F0E7EF19F0C3EF19F068C0E2
:1033D00060F069C061F06AC062F06BC063F0120017
:1033E000000E096E000E0A6E000E0B6E000E0C6EC3
:1033F00001A0FDEF19F0FFEF19F007EF1AF00550EB
:10340000092606500A2207500B2208500C22D89099
:103410000536063607360836D890043203320232B3
:1034200001320150021003100410D8A41AEF1AF050
:103430001CEF1AF0F8EF19F009C001F00AC002F011
:103440000BC003F00CC004F01200010E076E200E3A
:1034500001180210D8B42FEF1AF031EF1AF04AEF2A
:103460001AF0F70E036EFF0E046E01C005F002C0E5
:1034700006F00350052604500622065009E1050E09
:10348000055CD8A046EF1AF048EF1AF04AEF1AF0A0
:10349000000E076E07C001F0026A12000001CA5157
:1034A0004018D8B456EF1AF058EF1AF072EF1AF02D
:1034B00040C0CAF0C24BC32B6051C25DC351800AE9
:1034C000626F6151800A6259D8A069EF1AF06BEF00
:1034D0001AF072EF1AF0000EC36F000EC26F010EE9
:1034E00073EF1AF0000E12000001CB514018D8B44F
:1034F0007CEF1AF07EEF1AF098EF1AF040C0CBF094
:10350000C44BC52B6051C45DC551800A626F6151C7
:10351000800A6259D8A08FEF1AF091EF1AF098EF55
:103520001AF0000EC56F000EC46F010E99EF1AF06D
:10353000000E1200D00E036EFF0E046E01C005F0E7
:1035400002C006F0035005260450062206500AE188
:103550000A0E055CD8A0AFEF1AF0B2EF1AF0010E18
:10356000B3EF1AF0000E016E026A120000EEBEF018
:10357000130EEE6AE806FDE100EE3EF00D0EEE6A77
:10358000E806FDE14B904B920001A5EF10F09CA2E4
:10359000CCEF1AF0CEEF1AF0D0EF1AF09C989C887E
:0435A000985012002D
:020000040020DA
:10000000FFFFFFFFFFFFFFFFFFFFFFFFFFFFFFFF00
:10001000FFFFFFFFFFFFFFFFFFFFFFFFFFFFFFFFF0
:10002000FFFFFFFFFFFFFFFFFFFFFFFFFFFFFFFFE0
:10003000FFFFFFFFFFFFFFFFFFFFFFFFFFFFFFFFD0
:10004000FFFFFFFFFFFFFFFFFFFFFFFFFFFFFFFFC0
:10005000FFFFFFFFFFFFFFFFFFFFFFFFFFFFFFFFB0
:10006000FFFFFFFFFFFFFFFFFFFFFFFFFFFFFFFFA0
:10007000FFFFFFFFFFFFFFFFFFFFFFFFFFFFFFFF90
:10008000FFFFFFFFFFFFFFFFFFFFFFFFFFFFFFFF80
:10009000FFFFFFFFFFFFFFFFFFFFFFFFFFFFFFFF70
:1000A000FFFFFFFFFFFFFFFFFFFFFFFFFFFFFFFF60
:1000B000FFFFFFFFFFFFFFFFFFFFFFFFFFFFFFFF50
:1000C000FFFFFFFFFFFFFFFFFFFFFFFFFFFFFFFF40
:1000D000FFFFFFFFFFFFFFFFFFFFFFFFFFFFFFFF30
:1000E000FFFFFFFFFFFFFFFFFFFFFFFFFFFFFFFF20
:1000F000FFFFFFFFFFFFFFFFFFFFFFFFFFFFFFFF10
:020000040030CA
:0C0000008CD77EFF9FFFFFCFFFFFFFFFAC
:00000001FF
